{
  "contractName": "Payment",
  "abi": [
    {
      "inputs": [],
      "stateMutability": "nonpayable",
      "type": "constructor"
    },
    {
      "inputs": [
        {
          "internalType": "uint256",
          "name": "",
          "type": "uint256"
        }
      ],
      "name": "userNames",
      "outputs": [
        {
          "internalType": "string",
          "name": "",
          "type": "string"
        }
      ],
      "stateMutability": "view",
      "type": "function",
      "constant": true
    },
    {
      "inputs": [
        {
          "internalType": "uint256",
          "name": "user_id",
          "type": "uint256"
        },
        {
          "internalType": "string",
          "name": "user_name",
          "type": "string"
        }
      ],
      "name": "registerUser",
      "outputs": [
        {
          "internalType": "bool",
          "name": "",
          "type": "bool"
        }
      ],
      "stateMutability": "nonpayable",
      "type": "function"
    },
    {
      "inputs": [
        {
          "internalType": "uint256",
          "name": "user_id_1",
          "type": "uint256"
        },
        {
          "internalType": "uint256",
          "name": "user_id_2",
          "type": "uint256"
        },
        {
          "internalType": "uint256",
          "name": "init_balance",
          "type": "uint256"
        }
      ],
      "name": "createAcc",
      "outputs": [],
      "stateMutability": "nonpayable",
      "type": "function"
    },
    {
      "inputs": [
        {
          "internalType": "uint256",
          "name": "from",
          "type": "uint256"
        },
        {
          "internalType": "uint256",
          "name": "to",
          "type": "uint256"
        },
        {
          "internalType": "uint256",
          "name": "ammount",
          "type": "uint256"
        }
      ],
      "name": "sendAmount",
      "outputs": [
        {
          "internalType": "bool",
          "name": "",
          "type": "bool"
        }
      ],
      "stateMutability": "nonpayable",
      "type": "function"
    },
    {
      "inputs": [
        {
          "internalType": "uint256",
          "name": "user_id_1",
          "type": "uint256"
        },
        {
          "internalType": "uint256",
          "name": "user_id_2",
          "type": "uint256"
        }
      ],
      "name": "closeAccount",
      "outputs": [
        {
          "internalType": "bool",
          "name": "",
          "type": "bool"
        }
      ],
      "stateMutability": "nonpayable",
      "type": "function"
    }
  ],
  "bytecode": "0x608060405234801561001057600080fd5b50600080819055506115f2806100276000396000f3fe608060405234801561001057600080fd5b50600436106100575760003560e01c80631c57333e1461005c5780633f3078df1461008c5780634ebd3aea146100bc578063b5483481146100ec578063bd45d6eb14610108575b600080fd5b61007660048036038101906100719190610fae565b610138565b6040516100839190611025565b60405180910390f35b6100a660048036038101906100a19190611040565b6101af565b6040516100b39190611025565b60405180910390f35b6100d660048036038101906100d19190611093565b610915565b6040516100e3919061113f565b60405180910390f35b61010660048036038101906101019190611040565b6109b5565b005b610122600480360381019061011d9190611161565b610a88565b60405161012f9190611025565b60405180910390f35b600080600160008581526020019081526020016000208054610159906111d0565b9050111561016a57600090506101a9565b8160016000858152602001908152602001600020908161018a91906113ad565b50600160008082825461019d91906114ae565b92505081905550600190505b92915050565b60008061271090506000805467ffffffffffffffff8111156101d4576101d3610e83565b5b6040519080825280602002602001820160405280156102025781602001602082028036833780820191505090505b5090506000805467ffffffffffffffff81111561022257610221610e83565b5b6040519080825280602002602001820160405280156102505781602001602082028036833780820191505090505b5090506000805467ffffffffffffffff8111156102705761026f610e83565b5b60405190808252806020026020018201604052801561029e5781602001602082028036833780820191505090505b5090506000805467ffffffffffffffff8111156102be576102bd610e83565b5b6040519080825280602002602001820160405280156102ec5781602001602082028036833780820191505090505b5090506000806000905060005b60005481101561035d5787858281518110610317576103166114e2565b5b6020026020010181815250506000878281518110610338576103376114e2565b5b602002602001019015159081151581525050808061035590611511565b9150506102f9565b506000848c81518110610373576103726114e2565b5b6020026020010181815250506001868c81518110610394576103936114e2565b5b6020026020010190151590811515815250508a856000815181106103bb576103ba6114e2565b5b602002602001018181525050600191505b801580156103da5750600082115b1561072f57600080805467ffffffffffffffff8111156103fd576103fc610e83565b5b60405190808252806020026020018201604052801561042b5781602001602082028036833780820191505090505b50905060005b8481101561072157600088828151811061044e5761044d6114e2565b5b6020026020010151905084156104645750610721565b60005b600260008381526020019081526020016000208054905081101561070c578a6002600084815260200190815260200160002082815481106104ab576104aa6114e2565b5b906000526020600020906002020160000154815181106104ce576104cd6114e2565b5b602002602001015115801561051957508d600260008481526020019081526020016000208281548110610504576105036114e2565b5b90600052602060002090600202016001015410155b15610656578188600260008581526020019081526020016000208381548110610545576105446114e2565b5b90600052602060002090600202016000015481518110610568576105676114e2565b5b602002602001018181525050600260008381526020019081526020016000208181548110610599576105986114e2565b5b9060005260206000209060020201600001548486815181106105be576105bd6114e2565b5b60200260200101818152505060018983815181106105df576105de6114e2565b5b60200260200101516105f191906114ae565b89600260008581526020019081526020016000208381548110610617576106166114e2565b5b9060005260206000209060020201600001548151811061063a576106396114e2565b5b60200260200101818152505060018561065391906114ae565b94505b8e60026000848152602001908152602001600020828154811061067c5761067b6114e2565b5b9060005260206000209060020201600001540361069c576001955061070c565b60018b6002600085815260200190815260200160002083815481106106c4576106c36114e2565b5b906000526020600020906002020160000154815181106106e7576106e66114e2565b5b602002602001019015159081151581525050808061070490611511565b915050610467565b5050808061071990611511565b915050610431565b5080965081935050506103cc565b8061074457600097505050505050505061090e565b60008a905060005b8c821461090057848281518110610766576107656114e2565b5b6020026020010151905060005b600260008381526020019081526020016000208054905081101561083357826002600084815260200190815260200160002082815481106107b7576107b66114e2565b5b90600052602060002090600202016000015403610820578b6002600084815260200190815260200160002082815481106107f4576107f36114e2565b5b906000526020600020906002020160010160008282546108149190611559565b92505081905550610833565b808061082b90611511565b915050610773565b5060005b60026000848152602001908152602001600020805490508110156108f7578160026000858152602001908152602001600020828154811061087b5761087a6114e2565b5b906000526020600020906002020160000154036108e4578b6002600085815260200190815260200160002082815481106108b8576108b76114e2565b5b906000526020600020906002020160010160008282546108d891906114ae565b925050819055506108f7565b80806108ef90611511565b915050610837565b5080915061074c565b600199505050505050505050505b9392505050565b60016020528060005260406000206000915090508054610934906111d0565b80601f0160208091040260200160405190810160405280929190818152602001828054610960906111d0565b80156109ad5780601f10610982576101008083540402835291602001916109ad565b820191906000526020600020905b81548152906001019060200180831161099057829003601f168201915b505050505081565b6002600084815260200190815260200160002060405180604001604052808581526020018381525090806001815401808255809150506001900390600052602060002090600202016000909190919091506000820151816000015560208201518160010155505060026000838152602001908152602001600020604051806040016040528085815260200183815250908060018154018082558091505060019003906000526020600020906002020160009091909190915060008201518160000155602082015181600101555050505050565b600080600160008581526020019081526020016000208054610aa9906111d0565b905003610ab95760009050610e18565b6000600160008481526020019081526020016000208054610ad9906111d0565b905003610ae95760009050610e18565b60005b6002600085815260200190815260200160002080549050811015610c7d5782600260008681526020019081526020016000208281548110610b3057610b2f6114e2565b5b90600052602060002090600202016000015403610c37576002600085815260200190815260200160002060016002600087815260200190815260200160002080549050610b7d9190611559565b81548110610b8e57610b8d6114e2565b5b9060005260206000209060020201600260008681526020019081526020016000208281548110610bc157610bc06114e2565b5b9060005260206000209060020201600082015481600001556001820154816001015590505060026000858152602001908152602001600020805480610c0957610c0861158d565b5b6001900381819060005260206000209060020201600080820160009055600182016000905550509055610c7d565b60016002600086815260200190815260200160002080549050610c5a9190611559565b8103610c6a576000915050610e18565b8080610c7590611511565b915050610aec565b5060005b6002600084815260200190815260200160002080549050811015610e125783600260008581526020019081526020016000208281548110610cc557610cc46114e2565b5b90600052602060002090600202016000015403610dcc576002600084815260200190815260200160002060016002600086815260200190815260200160002080549050610d129190611559565b81548110610d2357610d226114e2565b5b9060005260206000209060020201600260008581526020019081526020016000208281548110610d5657610d556114e2565b5b9060005260206000209060020201600082015481600001556001820154816001015590505060026000848152602001908152602001600020805480610d9e57610d9d61158d565b5b6001900381819060005260206000209060020201600080820160009055600182016000905550509055610e12565b60016002600085815260200190815260200160002080549050610def9190611559565b8103610dff576000915050610e18565b8080610e0a90611511565b915050610c81565b50600190505b92915050565b6000604051905090565b600080fd5b600080fd5b6000819050919050565b610e4581610e32565b8114610e5057600080fd5b50565b600081359050610e6281610e3c565b92915050565b600080fd5b600080fd5b6000601f19601f8301169050919050565b7f4e487b7100000000000000000000000000000000000000000000000000000000600052604160045260246000fd5b610ebb82610e72565b810181811067ffffffffffffffff82111715610eda57610ed9610e83565b5b80604052505050565b6000610eed610e1e565b9050610ef98282610eb2565b919050565b600067ffffffffffffffff821115610f1957610f18610e83565b5b610f2282610e72565b9050602081019050919050565b82818337600083830152505050565b6000610f51610f4c84610efe565b610ee3565b905082815260208101848484011115610f6d57610f6c610e6d565b5b610f78848285610f2f565b509392505050565b600082601f830112610f9557610f94610e68565b5b8135610fa5848260208601610f3e565b91505092915050565b60008060408385031215610fc557610fc4610e28565b5b6000610fd385828601610e53565b925050602083013567ffffffffffffffff811115610ff457610ff3610e2d565b5b61100085828601610f80565b9150509250929050565b60008115159050919050565b61101f8161100a565b82525050565b600060208201905061103a6000830184611016565b92915050565b60008060006060848603121561105957611058610e28565b5b600061106786828701610e53565b935050602061107886828701610e53565b925050604061108986828701610e53565b9150509250925092565b6000602082840312156110a9576110a8610e28565b5b60006110b784828501610e53565b91505092915050565b600081519050919050565b600082825260208201905092915050565b60005b838110156110fa5780820151818401526020810190506110df565b60008484015250505050565b6000611111826110c0565b61111b81856110cb565b935061112b8185602086016110dc565b61113481610e72565b840191505092915050565b600060208201905081810360008301526111598184611106565b905092915050565b6000806040838503121561117857611177610e28565b5b600061118685828601610e53565b925050602061119785828601610e53565b9150509250929050565b7f4e487b7100000000000000000000000000000000000000000000000000000000600052602260045260246000fd5b600060028204905060018216806111e857607f821691505b6020821081036111fb576111fa6111a1565b5b50919050565b60008190508160005260206000209050919050565b60006020601f8301049050919050565b600082821b905092915050565b6000600883026112637fffffffffffffffffffffffffffffffffffffffffffffffffffffffffffffffff82611226565b61126d8683611226565b95508019841693508086168417925050509392505050565b6000819050919050565b60006112aa6112a56112a084610e32565b611285565b610e32565b9050919050565b6000819050919050565b6112c48361128f565b6112d86112d0826112b1565b848454611233565b825550505050565b600090565b6112ed6112e0565b6112f88184846112bb565b505050565b5b8181101561131c576113116000826112e5565b6001810190506112fe565b5050565b601f8211156113615761133281611201565b61133b84611216565b8101602085101561134a578190505b61135e61135685611216565b8301826112fd565b50505b505050565b600082821c905092915050565b600061138460001984600802611366565b1980831691505092915050565b600061139d8383611373565b9150826002028217905092915050565b6113b6826110c0565b67ffffffffffffffff8111156113cf576113ce610e83565b5b6113d982546111d0565b6113e4828285611320565b600060209050601f8311600181146114175760008415611405578287015190505b61140f8582611391565b865550611477565b601f19841661142586611201565b60005b8281101561144d57848901518255600182019150602085019450602081019050611428565b8683101561146a5784890151611466601f891682611373565b8355505b6001600288020188555050505b505050505050565b7f4e487b7100000000000000000000000000000000000000000000000000000000600052601160045260246000fd5b60006114b982610e32565b91506114c483610e32565b92508282019050808211156114dc576114db61147f565b5b92915050565b7f4e487b7100000000000000000000000000000000000000000000000000000000600052603260045260246000fd5b600061151c82610e32565b91507fffffffffffffffffffffffffffffffffffffffffffffffffffffffffffffffff820361154e5761154d61147f565b5b600182019050919050565b600061156482610e32565b915061156f83610e32565b92508282039050818111156115875761158661147f565b5b92915050565b7f4e487b7100000000000000000000000000000000000000000000000000000000600052603160045260246000fdfea26469706673582212206bca4f0a44d407fdf5edb33efea6c09583af9e947002be5f7862c14884734e5a64736f6c63430008130033",
  "immutableReferences": {},
  "source": "// SPDX-License-Identifier: MIT\npragma solidity >=0.4.22 <0.9.0;\n\ncontract Payment {\n  uint numUsers;\n  mapping (uint => string) public userNames;\n  struct Edge {\n    uint dest;\n    uint bal;\n  }\n\n  mapping(uint => Edge[]) private adjList;\n\n  constructor() {\n    numUsers = 0;\n  }\n\n  function registerUser(uint user_id, string memory user_name) public returns (bool){\n    if(bytes(userNames[user_id]).length > 0){\n      return false;\n    }\n    userNames[user_id] = user_name;\n    numUsers+=1;\n    return true;\n  } \n\n  function createAcc(uint user_id_1, uint user_id_2, uint init_balance) public {\n    adjList[user_id_1].push(Edge({dest: user_id_1, bal: init_balance}));\n    adjList[user_id_2].push(Edge({dest: user_id_1, bal: init_balance}));\n  }\n\n  function sendAmount(uint from, uint to, uint ammount) public returns (bool) {\n    uint maxD = 10000;\n    bool[] memory visited = new bool[](numUsers);\n    uint[] memory queue = new uint[](numUsers);\n    uint[] memory dist = new uint[](numUsers);\n    uint[] memory prev = new uint[](numUsers);\n    uint numQueue;\n    bool found = false;\n\n    for(uint i=0; i<numUsers; i++){\n      dist[i] = maxD;\n      visited[i] = false;\n    }\n\n    dist[from] = 0;\n    visited[from] = true;\n    queue[0] = from;\n    numQueue = 1; \n\n    while(!found && numQueue>0){\n      uint tnumQueue = 0;\n      uint[] memory tqueue = new uint[](numUsers);\n      for(uint i=0; i<numQueue; i++){\n        uint s = queue[i];\n        if(found){\n          break;\n        }\n        for(uint j=0; j<adjList[s].length; j++){\n          if(!visited[adjList[s][j].dest]  && adjList[s][j].bal >= ammount){\n            prev[adjList[s][j].dest] = s;\n            tqueue[tnumQueue] = adjList[s][j].dest;\n            dist[adjList[s][j].dest] = dist[s]+1;\n            tnumQueue+=1;\n          }\n          if(adjList[s][j].dest == to){\n            found = true;\n            break;\n          }\n          visited[adjList[s][j].dest] = true;\n        }\n      }\n      queue = tqueue;\n      numQueue = tnumQueue;\n    }\n\n    if(!found) return false;\n\n    uint node = to;\n    uint pnode;\n\n    while(node != from){\n      pnode = prev[node];\n      for(uint i=0; i < adjList[pnode].length; i++){\n        if(adjList[pnode][i].dest == node){\n          adjList[pnode][i].bal -= ammount;\n          break;\n        }\n      }\n      for(uint i=0; i < adjList[node].length; i++){\n        if(adjList[node][i].dest == pnode){\n          adjList[node][i].bal += ammount;\n          break;\n        }\n      }\n      node = pnode;\n    }\n    return true;\n  }\n\n  function closeAccount(uint user_id_1, uint user_id_2) public returns(bool){\n    if(bytes(userNames[user_id_1]).length == 0){\n      return false;\n    }\n    if(bytes(userNames[user_id_2]).length == 0){\n      return false;\n    }\n    for(uint i=0; i<adjList[user_id_1].length; i++){\n      if(adjList[user_id_1][i].dest == user_id_2){\n        adjList[user_id_1][i] = adjList[user_id_1][adjList[user_id_1].length-1];\n        adjList[user_id_1].pop();\n        break;\n      }\n      if(i == adjList[user_id_1].length-1) return false;\n    }\n    for(uint i=0; i<adjList[user_id_2].length; i++){\n      if(adjList[user_id_2][i].dest == user_id_1){\n        adjList[user_id_2][i] = adjList[user_id_2][adjList[user_id_2].length-1];\n        adjList[user_id_2].pop();\n        break;\n      }\n      if(i == adjList[user_id_2].length-1) return false;\n    }\n    return true;\n  }\n}\n\n  // function dijkstra(uint256 start, uint256 end, uint256 minWeight) internal returns (uint256[] memory, int256) {\n  //     int[] memory distances = new int[](numUsers);\n  //     uint[] memory previous = new uint[](numUsers);\n  //     bool[] memory visited = new bool[](numUsers);\n\n  //     for (uint256 i = 0; i < numUsers; i++) {\n  //       distances[i] = -1;\n  //       visited[i] = false;\n  //     }\n\n  //     distances[uint256(start)] = 0;\n\n  //     while (true) {\n  //       int256 current = -1;\n  //       int256 minDist = -1;\n\n  //       for (uint256 i = 0; i < uint256(numUsers); i++) {\n  //           if (!visited[i] && distances[uint256(i)] < minDist) {\n  //               current = int256(i);\n  //               minDist = distances[uint256(i)];\n  //           }\n  //       }\n\n  //       if (current == -1) {\n  //           break;\n  //       }\n\n  //       visited[uint(current)] = true;\n\n  //       for (uint256 j = 0; j < adjacencyList[uint(current)].length; j++) {\n  //         uint256 neighbor = adjacencyList[uint(current)][j].dest;\n  //         uint256 weight = adjacencyList[uint(current)][j].weight;\n\n  //         if (weight >= minWeight) {\n  //           uint256 alt = uint256(distances[uint(current)]) + weight;\n\n  //           if (alt < uint256(distances[neighbor])) {\n  //               distances[neighbor] = int256(alt);\n  //               previous[neighbor] = uint256(current);\n  //           }\n  //         }\n  //       }\n  //     }\n\n  //     uint256[] memory path = new uint256[](numUsers);\n  //     uint256 pathLength = 0;\n\n  //     uint256 node = end;\n  //     uint256 t = end;\n\n  //     while (node != start) {\n  //       path[pathLength] = node;\n  //       pathLength++;\n  //       t = previous[node];\n\n  //       // need to make transaction here \n\n  //       node = t;\n  //     }\n\n  //     path[pathLength] = start;\n  //     pathLength++;\n\n  //     for (uint256 i = 0; i < pathLength / 2; i++) {\n  //       uint256 temp = path[i];\n  //       path[i] = path[pathLength - i - 1];\n  //       path[pathLength - i - 1] = temp;\n  //     }\n\n  //     return (path, distances[end]);\n  //   }\n",
  "sourcePath": "/home/yash/IITb/sem6/cs765/a3/HW3/contracts/Payment.sol",
  "compiler": {
    "name": "solc",
    "version": "0.8.19+commit.7dd6d404.Emscripten.clang"
  },
  "schemaVersion": "3.4.13",
  "updatedAt": "2023-04-08T15:18:41.343Z",
  "networkType": "ethereum",
  "devdoc": {
    "kind": "dev",
    "methods": {},
    "version": 1
  },
  "userdoc": {
    "kind": "user",
    "methods": {},
    "version": 1
  }
}